:100000000C9428010C9459010C9459010C94590139
:100010000C9459010C9459010C9459010C945901F8
:100020000C9459010C9459010C9459010C945901E8
:100030000C9459010C9459010C9459010C945901D8
:100040000C9459010C9459010C9459010C945901C8
:100050000C9459010C9459010C9459010C94FD0312
:100060000C9459010C9471040C9447040C9459019C
:100070000C9459010C9459010C9459010C94590198
:100080000C9459010C9459010C9459010C94590188
:100090000C9459010C9459010C9459010C94590178
:1000A0000C9459010C9459010C9459010C94590168
:1000B0000C9459010C9459010C9459010C94590158
:1000C0000C9459010C9459010C9459010C94590148
:1000D0000C9459010C9459010C9459010C94590138
:1000E0000C9459010C94F1020C94E9060C94D6017D
:1000F0000C94D0010C94C1010C94E8010C9484037D
:100100000C94EE010C94F6010C9400020C949D02E8
:100110000C9461020C94FF020C94CD010C94AA0182
:100120000C94F2010C94C9010C948E020C94C5013C
:100130000C94FC010C9437030C94E4010C94AF0173
:100140000C94DA010C94E00100000A0B02090C0D7A
:100150000E0807030401000000000000000000007A
:10016000000000000000000000000000000000008F
:10017000000000001211100000000000000000004C
:10018000000000000000000000000000000000006F
:100190002200250028002B002E003100340002012F
:1001A0000000050108010B010000210024002700C8
:1001B0002A002D0030003300010100000401070176
:1001C0000A010505050507050808080802020202DC
:1001D0000A0A0808040404040101010101010101E3
:1001E0000303030303030303040707070C0C0C0CAE
:1001F0000C0C0C0C02020202060606060606060697
:100200000B0B0B0B0B0B0B0B010210202008081023
:100210002040102040800201020108040201010276
:10022000040810204080804020100804020180044F
:1002300002018040201008040201080402010102AA
:100240000408102040800102040810204080E906C4
:1002500011241FBECFEFD1E2DEBFCDBF00E00CBF47
:1002600023E0A8EDB2E001C01D92A338B207E1F788
:1002700012E0A0E0B2E0E4EEF2E100E00BBF02C069
:1002800007900D92A83DB107D9F711E0C8E2D1E07F
:1002900000E006C021970109802FFE010E94360769
:1002A000C732D10780E00807A9F70E94A7040C9481
:1002B00070090C94000090E0FC01E85FFD4F249170
:1002C0008E539E4FFC018491882399F090E0880F13
:1002D000991FFC01E855FE4FA591B491FC01E2572E
:1002E000FE4F859194918FB7F894EC91E22BEC93AB
:1002F0008FBF0895282F30E0F901E85BFE4F9491FD
:10030000F901E85FFD4F44912E533E4FF9012491CE
:10031000222309F435C0992311F191509231F8F458
:10032000E92FF0E08827E856FE4F8F4F0C943607F0
:10033000C901CD01AA01C101C501AF01D001D6019A
:10034000DA01E001E401E801EE01F201AF01F6019A
:10035000FC010002809180008F7780938000E22F63
:10036000F0E0EE0FFF1FE257FE4FA591B4918FB75B
:10037000F894EC91611148C040954E234C938FBF87
:100380000895809180008F7DE8CF80918000877FE5
:10039000E4CF84B58F7784BDE2CF84B58F7DFBCF6A
:1003A0008091B0008F778093B000D9CF8091B0005A
:1003B0008F7DF9CF809190008F7780939000CFCF81
:1003C000809190008F7DF9CF80919000877FF5CF4D
:1003D0008091A0008F778093A000C1CF8091A00072
:1003E0008F7DF9CF8091A000877FF5CF809120018C
:1003F0008F7780932001B3CF809120018F7DF9CF3B
:1004000080912001877FF5CF4E2BB8CF3FB7F8946E
:100410008091DA029091DB02A091DC02B091DD02C2
:1004200026B5A89B05C02F3F19F00196A11DB11D4F
:100430003FBFBA2FA92F982F8827BC01CD01620F8B
:10044000711D811D911D42E0660F771F881F991F46
:100450004A95D1F708958F929F92AF92BF92CF9213
:10046000DF92EF92FF920E9406024B015C0184EF43
:10047000C82EDD24D394E12CF12C0E9406026819C9
:1004800079098A099B09683E734081059105A8F3A3
:1004900021E0C21AD108E108F10888EE880E83E055
:1004A000981EA11CB11CC114D104E104F10429F768
:1004B000FF90EF90DF90CF90BF90AF909F908F9084
:1004C0000895AF92BF92CF92DF92EF92FF920F9377
:1004D0001F93CF93DF936C017B018B01040F151FDA
:1004E000EB015E01AE18BF08C017D10759F0699142
:1004F000D601ED91FC910190F081E02DC601199596
:10050000892B79F7C501DF91CF911F910F91FF9052
:10051000EF90DF90CF90BF90AF900895FC01538D86
:10052000448D252F30E0842F90E0821B930B5417CD
:1005300010F0CF96089501970895FC01918D828D5A
:10054000981761F0A28DAE0FBF2FB11D5D968C91F3
:10055000928D9F5F9F73928F90E008958FEF9FEF32
:1005600008952FB7F8948091DE029091DF02A09158
:10057000E002B091E1022FBF8093EA029093EB0278
:10058000A093EC02B093ED0282EE92E00E949D02F5
:1005900097FF26C02FB7F8948091DE029091DF027A
:1005A000A091E002B091E1022FBF4091EA02509188
:1005B000EB026091EC027091ED02841B950BA60B8F
:1005C000B70B4091E6025091E7026091E80270910A
:1005D000E90284179507A607B707B0F28FEF9FEFE0
:1005E0000895FC01918D828D981731F0828DE80F6E
:1005F000F11D858D90E008958FEF9FEF0895FC0128
:10060000918D228D892F90E0805C9F4F821B9109F4
:100610008F739927089582EE92E00E94FF0221E0F5
:10062000892B09F420E0822F0895FC01A48DA80FE6
:10063000B92FB11DA35ABF4F2C91848D90E0019624
:100640008F739927848FA689B7892C93A089B18944
:100650008C91837080648C93938D848D981306C0E5
:100660000288F389E02D80818F7D80830895EF9249
:10067000FF920F931F93CF93DF93EC0181E0888F5C
:100680009B8D8C8D98131AC0E889F989808185FF2C
:1006900015C09FB7F894EE89FF896083E889F989CE
:1006A00080818370806480839FBF81E090E0DF91D0
:1006B000CF911F910F91FF90EF900895F62E0B8D23
:1006C00010E00F5F1F4F0F731127E02E8C8D8E11DE
:1006D0000CC00FB607FCFACFE889F989808185FF45
:1006E000F5CFCE010E941503F1CFEB8DEC0FFD2F5E
:1006F000F11DE35AFF4FF0829FB7F8940B8FEA8900
:10070000FB8980818062CFCFCF93DF93EC01888D0E
:100710008823B9F0AA89BB89E889F9898C9185FD7C
:1007200003C0808186FD0DC00FB607FCF7CF8C910A
:1007300085FFF2CF808185FFEDCFCE010E941503AA
:10074000E9CFDF91CF91089580E090E0892B29F0E7
:100750000E940B0381110E94000080E090E0892B31
:1007600049F080E090E0892B29F00E94000081117F
:100770000E94000080E090E0892B49F080E090E04A
:10078000892B29F00E94000081110E94000080E066
:1007900090E0892B49F080E090E0892B29F00E94BD
:1007A000000081110C94000008950F931F93CF93C4
:1007B000DF93EC0188819981009759F02A813B8170
:1007C0002617370730F081E0DF91CF911F910F910D
:1007D00008958B016F5F7F4F0E947708009759F053
:1007E000998388831B830A832C813D81232B59F7AE
:1007F000FC011082E8CF80E0E7CF1F920F920FB686
:100800000F9211242F933F938F939F93AF93BF9396
:100810008091DE029091DF02A091E002B091E102AE
:100820003091D90223E0230F2D3758F50196A11DF1
:10083000B11D2093D9028093DE029093DF02A09332
:10084000E002B093E1028091DA029091DB02A09184
:10085000DC02B091DD020196A11DB11D8093DA0288
:100860009093DB02A093DC02B093DD02BF91AF91C5
:100870009F918F913F912F910F900FBE0F901F90DE
:10088000189526E8230F0296A11DB11DD2CF1F9205
:100890000F920FB60F9211240BB60F922F933F9326
:1008A0004F935F936F937F938F939F93AF93BF9378
:1008B000EF93FF9382EE92E00E941503FF91EF9178
:1008C000BF91AF919F918F917F916F915F914F9168
:1008D0003F912F910F900BBE0F900FBE0F901F9066
:1008E00018951F920F920FB60F9211240BB60F920C
:1008F0002F938F939F93EF93FF93E091F202F091E8
:10090000F3028081E091F802F091F90282FD1DC0AE
:1009100090818091FB028F5F8F732091FC02821780
:1009200041F0E091FB02F0E0EE51FD4F958F809396
:10093000FB02FF91EF919F918F912F910F900BBE32
:100940000F900FBE0F901F9018958081F2CFCF931C
:10095000DF9300D000D01F921F92CDB7DEB77894FE
:1009600084B5826084BD84B5816084BD85B58260B4
:1009700085BD85B5816085BD80916E008160809365
:100980006E001092810080918100826080938100CE
:1009900080918100816080938100809180008160DE
:1009A000809380008091B10084608093B100809139
:1009B000B00081608093B00080919100826080934C
:1009C00091008091910081608093910080919000CE
:1009D0008160809390008091A10082608093A1004B
:1009E0008091A10081608093A1008091A00081602E
:1009F0008093A000809121018260809321018091E9
:100A00002101816080932101809120018160809388
:100A1000200180917A00846080937A0080917A002E
:100A2000826080937A0080917A00816080937A005E
:100A300080917A00806880937A001092C100E091E2
:100A4000F202F091F30282E08083E091EE02F091F5
:100A5000EF021082E091F002F091F1028FEC8083BE
:100A60001092FA02E091F602F091F70286E080839C
:100A7000E091F402F091F502808180618083E09141
:100A8000F402F091F502808188608083E091F402A5
:100A9000F091F502808180688083E091F402F0910A
:100AA000F50280818F7D8083B2E2AB2EB2E0BB2E57
:100AB00012E2E12E12E0F12E08E1C02E02E0D02E6B
:100AC00010E000E0F801EE0FFF1FEE0DFF1D80812A
:100AD0000E945B010F5F1F4F0530110599F7D6018A
:100AE0008C91B2E0CB0ED11C0E945B01EAE0EE0ECD
:100AF000F11CAC14BD0421F765E0662E712C75E085
:100B0000572E52E2E52E52E0F52E08E112E0D80110
:100B10008C910E5F1F4F60E00E947A01B12CA12CD6
:100B2000F501EE0FFF1FEE0DFF1D60E080810E94BA
:100B30007A01BFEFAB1ABB0AE5E0AE16B10481F74C
:100B4000FAE0EF0EF11C0C151D0509F732E2E32E59
:100B500032E0F32EB12CA12CF501EE0FFF1FEE0DAC
:100B6000FF1D61E080810E947A018FEFA81AB80A08
:100B700095E0A916B10481F7AAE0EA0EF11CB4E5EC
:100B8000EB16B2E0FB0631F798E1E92E92E0F92E80
:100B9000F7018081F2E0EF0EF11C61E00E947A0122
:100BA0000E942B020E151F0599F748E150E06CEBEF
:100BB00072E082EE92E00E94610242E050E065ED58
:100BC00072E082EE92E00E94610282EE92E00E9468
:100BD000FF02892BD1F31A8219821C821B821E828A
:100BE0001D8270E060E0CE0101960E94D50329814C
:100BF0003A8181112EC02115310519F0C9010E94D9
:100C0000EE071A8219821E821D821C821B820E949C
:100C1000B10297FD26C08A30910519F18F8318869D
:100C20000D811E810F5F1F4FB801CE0101960E94FA
:100C3000D503882361F329813A818D819E81BE018C
:100C4000695F7F4F820F931F0E9469091E830D8386
:100C5000DECF1E821D8267ED72E0C9010E94690924
:100C6000D6CFA980BA80A114B10439F00D811E81BC
:100C700075010115110509F05DC009811A81011581
:100C8000110509F08DC010E000E089819A812D8165
:100C90003E810217130708F095C0009709F08FC036
:100CA0001092D80288ED92E0DC01EC91E134F4F18D
:100CB000F12CE12CB4E0EB02F0011124E05BFE4FDB
:100CC00080809180A280B380D501C4010E2C04C025
:100CD000B695A795979587950A94D2F7282F2170F6
:100CE000C701B3010E942207569EF001579EF00DE6
:100CF0001124E80FF91FEE0FFF1FEE5DFD4F622F6D
:100D000080810E947A01EFEFEE1AFE0AF9E1EF16F8
:100D1000F104D1F661E08BE20E947A010E942B027D
:100D200060E08BE20E947A010E942B020F5F1F4F4E
:100D3000ACCF740147018FEF881A980AD7018C91C4
:100D4000082E000C990B0E941607892B91F7015071
:100D500011090A0D1B1DF8018081082E000C990B4A
:100D60000E941607892B31F00E151F0518F001504F
:100D70001109F1CF0F5F1F4FA8014E195F095E8364
:100D80004D83AE14BF0420F4B701C5010E94600971
:100D9000E981FA818D819E81E80FF91F10826DCF64
:100DA000D8018D918D01882309F46DCF082E000C98
:100DB000990B0E945809F80131978083F1CF800F79
:100DC000911F72CF009711F00E94EE070E94A403BA
:100DD00098CEE2EEF2E01382128288EE93E0A0E079
:100DE000B0E084839583A683B7838AE092E0918301
:100DF000808385EC90E09587848784EC90E09787EA
:100E0000868780EC90E0918B808B81EC90E0938BD7
:100E1000828B82EC90E0958B848B86EC90E0978BB4
:100E2000868B118E128E138E148E089591110C9450
:100E30001F07803219F089508550C8F70895992707
:100E40008827089597FB072E16F4009407D077FDA6
:100E500009D00E943E0707FC05D03EF4909581958D
:100E60009F4F0895709561957F4F0895EE0FFF1F76
:100E7000881F8BBF0790F691E02D1994AA1BBB1B0E
:100E800051E107C0AA1FBB1FA617B70710F0A61B8A
:100E9000B70B881F991F5A95A9F780959095BC01AB
:100EA000CD0108950F931F93CF93DF938230910567
:100EB00010F482E090E0E0918103F091820330E051
:100EC00020E0B0E0A0E0309799F42115310509F455
:100ED0004AC0281B390B24303105D8F58A819B8103
:100EE0006115710589F1FB0193838283FE0111C0B5
:100EF000408151810281138148175907E0F048175A
:100F0000590799F4109761F012960C931297139663
:100F10001C933296CF01DF91CF911F910F910895CD
:100F20000093810310938203F4CF2115310551F012
:100F30004217530738F0A901DB019A01BD01DF0117
:100F4000F801C1CFEF01F9CF909382038093810321
:100F5000CDCFFE01E20FF31F81939193225031090F
:100F600039832883D7CF20917F0330918003232BAF
:100F700041F42091020230910302309380032093C8
:100F80007F0320910002309101022115310541F4C7
:100F90002DB73EB74091040250910502241B350B3A
:100FA000E0917F03F0918003E217F307A0F42E1B7A
:100FB0003F0B2817390778F0AC014E5F5F4F2417BD
:100FC000350748F04E0F5F1F5093800340937F0317
:100FD000819391939FCFF0E0E0E09CCFCF93DF939C
:100FE0000097E9F0FC01329713821282A0918103ED
:100FF000B0918203ED0130E020E01097A1F4208150
:101000003181820F931F20917F0330918003281735
:10101000390709F061C0F0938003E0937F03DF910B
:10102000CF910895EA01CE17DF07E8F54A815B8189
:101030009E0141155105B1F7E901FB83EA8349910E
:101040005991C40FD51FEC17FD0761F48081918180
:101050000296840F951FE901998388838281938189
:101060009B838A83F0E0E0E012968D919C91139728
:101070000097B9F52D913C911197CD010296820F01
:10108000931F20917F03309180032817390739F689
:10109000309751F51092820310928103B093800330
:1010A000A0937F03BCCFD383C28340815181840F3F
:1010B000951FC817D90761F44E5F5F4F88819981EA
:1010C000480F591F518340838A819B819383828378
:1010D0002115310509F0B0CFF0938203E09381032D
:1010E0009ECFFD01DC01C0CF13821282D7CF4F9279
:1010F0005F926F927F928F929F92AF92BF92CF92A8
:10110000DF92EF92FF920F931F93CF93DF938C01A7
:10111000009799F4CB01DF91CF911F910F91FF9030
:10112000EF90DF90CF90BF90AF909F908F907F9087
:101130006F905F904F900C945207FC01E60FF71FE1
:101140009C0122503109E217F30708F4AEC0D9011F
:10115000CD91DC911197C617D70720F1C530D10585
:1011600078F0CE0104978617970750F0C61BD70B6F
:101170002297C193D1936D937C93CF010E94EE0788
:10118000C801DF91CF911F910F91FF90EF90DF90F9
:10119000CF90BF90AF909F908F907F906F905F9017
:1011A0004F9008955B01AC1ABD0A4C018C0E9D1E38
:1011B000A0918103B0918203512C412CF12CE12CA0
:1011C000109731F580917F039091800388159905E0
:1011D00009F05CC04616570608F058C0809100021E
:1011E00090910102009741F48DB79EB7409104029F
:1011F00050910502841B950BE817F90708F055C0BC
:10120000F0938003E0937F03F90171836083B8CF8B
:101210008D919C91119712966C90129713967C90D9
:101220001397A815B90559F56C0142E0C40ED11CFD
:10123000CA14DB0420F1AC014A195B09DA011296E9
:10124000159780F06282738251834083D9016D9338
:101250007C93E114F10471F0D7011396FC93EE93A3
:1012600012978ECF22968C0F9D1FF9019183808358
:10127000F301EFCFF0938203E093810381CF48160F
:10128000590608F42C017D01D3019ACFCB010E94AD
:1012900052077C01009749F0AE01B8010E94600935
:1012A000C8010E94EE0787016BCF10E000E068CF15
:1012B0009111089581568A5108F4805285580895F5
:1012C000FB01DC0102C001900D9241505040D8F763
:1012D0000895FB01DC0101900D920020E1F70895D3
:0412E000F894FFCFB0
:1012E40000008303800000000000370361028E02C7
:1012F4008403FF029D02F1022B002D002F00310018
:101304003300160018001A001C001E0017001900F4
:101314001B001D001F0020002200240026002800BE
:10132400210023002500270029002A002C002E007C
:10133400300032008F52FA00AAD6FA0131C6E80012
:101344002EC6F801B1D6FA019052FA01A7D6E800E8
:101354009F10F20131FE180110FA18015111F20127
:101364002184F0011F11F4015F10F4012EC6E8007E
:101374008852FA016FC6E8008B52FA01B2D69A007D
:10138400107E08013E84E0015C04C1013E88E00156
:1013940051111501101D040131D71901496E7472E0
:1013A4006F64757A6361207375206D656E73616A0D
:0813B400653A2020000D0A003B
:00000001FF
